:100000000C9446030C9465030C9465030C946503EF
:100010000C9465030C9465030C9465030C946503C0
:100020000C9465030C9465030C9465030C946503B0
:100030000C947B030C9465030C9465030C9465038A
:100040000C9465030C9465030C9465030C94650390
:100050000C9465030C9465030C9465030C94650380
:100060000C9465030C9465030C9465030C94650370
:100070000C9465030C9465030C9465030C94650360
:100080000C9465030C9465030C9465030000000058
:100090000000000000000000000000000000000060
:1000A0000000000000000000000000000000000050
:1000B0000000000000000000000000000000000040
:1000C0000000000000000000000000000000000030
:1000D0000000000000000000000000000000000020
:1000E0000000000000000000000000000000000010
:1000F0000000000000000000000000000000000000
:1001000000000000000000000000000000000000EF
:1001100000000000000000000000000000000000DF
:1001200000000000000000000000000000000000CF
:1001300000000000000000000000000000000000BF
:1001400000000000000000000000000000000000AF
:10015000000000000000000000000000000000009F
:10016000000000000000000000000000000000008F
:10017000000000000000000000000000000000007F
:10018000000000000000000000000000000000006F
:10019000000000000000000000000000000000005F
:1001A000000000000000000000000000000000004F
:1001B000000000000000000000000000000000003F
:1001C000000000000000000000000000000000002F
:1001D000000000000000000000000000000000001F
:1001E000000000000000000000000000000000000F
:1001F00000000000000000000000000000000000FF
:1002000000000000000000000000000000000000EE
:1002100000000000000000000030787878303000E6
:100220003030000000666666240000000000000018
:10023000006C6CFE6C6C6CFE6C6C000030307CC032
:10024000C0780C0CF8303000000000C4CC183060CE
:10025000CC8C00000070D8D870FADECCDC760000C0
:10026000003030306000000000000000000C18304A
:1002700060606030180C0000006030180C0C0C1826
:1002800030600000000000663CFE3C66000000009C
:1002900000000018187E1818000000000000000080
:1002A00000000000383860000000000000FE000080
:1002B00000000000000000000000000038380000CE
:1002C000000002060C183060C0800000007CC6CE22
:1002D000DED6F6E6C67C0000001030F0303030305C
:1002E00030FC00000078CCCC0C183060CCFC000056
:1002F0000078CC0C0C380C0CCC780000000C1C3CAA
:100300006CCCFE0C0C1E000000FCC0C0C0F80C0C35
:10031000CC780000003860C0C0F8CCCCCC780000AD
:1003200000FEC6C6060C1830303000000078CCCC79
:10033000EC78DCCCCC7800000078CCCCCC7C1818E5
:10034000307000000000003838000038380000002D
:10035000000000383800003838183000000C183021
:1003600060C06030180C0000000000007E007E00BD
:1003700000000000006030180C060C18306000000F
:100380000078CC0C1830300030300000007CC6C63D
:10039000DEDEDEC0C07C0000003078CCCCCCFCCCF3
:1003A000CCCC000000FC6666667C666666FC0000DD
:1003B000003C66C6C0C0C0C6663C000000F86C6663
:1003C000666666666CF8000000FE6260647C6460CD
:1003D00062FE000000FE6662647C646060F0000003
:1003E000003C66C6C0C0CEC6663E000000CCCCCC89
:1003F000CCFCCCCCCCCC000000783030303030306D
:1004000030780000001E0C0C0C0CCCCCCC7800001A
:1004100000E6666C6C786C6C66E6000000F060606C
:100420006060626666FE000000C6EEFEFED6C6C6CE
:10043000C6C6000000C6C6E6F6FEDECEC6C6000092
:1004400000386CC6C6C6C6C66C38000000FC6666BE
:10045000667C606060F0000000386CC6C6C6CEDE08
:100460007C0C1E0000FC6666667C6C6666E600001E
:100470000078CCCCC07018CCCC78000000FCB43034
:10048000303030303078000000CCCCCCCCCCCCCC70
:10049000CC78000000CCCCCCCCCCCCCC78300000DC
:1004A00000C6C6C6C6D6D66C6C6C000000CCCCCCE0
:1004B000783078CCCCCC000000CCCCCCCC783030B0
:1004C0003078000000FECE9818306062C6FE000052
:1004D000003C303030303030303C0000000080C014
:1004E0006030180C06020000003C0C0C0C0C0C0CCC
:1004F0000C3C000010386CC600000000000000003A
:1005000000000000000000000000FF003030180074
:10051000000000000000000000000000780C7CCC0F
:10052000CC76000000E060607C66666666DC0000F9
:100530000000000078CCC0C0CC780000001C0C0C7F
:100540007CCCCCCCCC7600000000000078CCFCC089
:10055000CC78000000386C6060F8606060F00000EB
:100560000000000076CCCCCC7C0CCC7800E0606045
:100570006C76666666E60000001818007818181891
:10058000187E0000000C0C003C0C0C0C0CCCCC7841
:1005900000E06060666C786C66E600000078181811
:1005A00018181818187E000000000000FCD6D6D6D7
:1005B000D6C6000000000000F8CCCCCCCCCC0000AB
:1005C0000000000078CCCCCCCC780000000000000B
:1005D000DC666666667C60F00000000076CCCCCC01
:1005E000CC7C0C1E00000000EC6E766060F0000019
:1005F0000000000078CC6018CC780000000020607B
:10060000FC6060606C38000000000000CCCCCCCCFA
:10061000CC76000000000000CCCCCCCC78300000C0
:1006200000000000C6C6D6D66C6C000000000000BA
:10063000C66C38386CC6000000000000666666664E
:100640003C0C18F000000000FC8C1860C4FC00009A
:10065000001C303060C06030301C000000181818DA
:10066000180018181818000000E03030180C183066
:1006700030E000000073DACE00000000000000004F
:1006800000000000000000000000000011241FBE58
:10069000CFEFD0E1DEBFCDBF12E0A0E0B1E0E8E9EE
:1006A000FBE000E00BBF02C007900D92AA34B10737
:1006B000D9F712E0AAE4B2E001C01D92AE34B1074E
:1006C000E1F70E94C6050C94CA050C94000085E071
:1006D00087BB8EB588608EBD87B7806187BF80E09D
:1006E00094E09BBD8ABD8EB581608EBD81E08EB9E0
:1006F0008CE58DB908951F920F920FB60F920BB62D
:100700000F9211242F934F935F938F939F93AF93E7
:10071000BF93EF93FF9318BA40914C0250914D0252
:10072000CA0180978C3D910508F0D1C18AE18A9574
:10073000F1F781E088BB8AE28A95F1F7E0914B02FC
:10074000F0E0EE0FFF1FE85DFD4FA081B1818091C9
:100750004A0290E0EC912CE0E29FF0011124E80FB6
:10076000F91FE457FF4FE491EFB91196EC911197FF
:10077000E29FF0011124E80FF91FE457FF4FE491C5
:10078000EFB91296EC911297E29FF0011124E80F55
:10079000F91FE457FF4FE491EFB91396EC911397CB
:1007A000E29FF0011124E80FF91FE457FF4FE49195
:1007B000EFB91496EC911497E29FF0011124E80F21
:1007C000F91FE457FF4FE491EFB91596EC91159797
:1007D000E29FF0011124E80FF91FE457FF4FE49165
:1007E000EFB91696EC911697E29FF0011124E80FED
:1007F000F91FE457FF4FE491EFB91796EC91179763
:10080000E29FF0011124E80FF91FE457FF4FE49134
:10081000EFB91896EC911897E29FF0011124E80FB8
:10082000F91FE457FF4FE491EFB91996EC9119972E
:10083000E29FF0011124E80FF91FE457FF4FE49104
:10084000EFB91A96EC911A97E29FF0011124E80F84
:10085000F91FE457FF4FE491EFB91B96EC911B97FA
:10086000E29FF0011124E80FF91FE457FF4FE491D4
:10087000EFB91C96EC911C97E29FF0011124E80F50
:10088000F91FE457FF4FE491EFB91D96EC911D97C6
:10089000E29FF0011124E80FF91FE457FF4FE491A4
:1008A000EFB91E96EC911E97E29FF0011124E80F1C
:1008B000F91FE457FF4FE491EFB91F96EC911F9792
:1008C000E29FF0011124E80FF91FE457FF4FE49174
:1008D000EFB95096EC915097E29FF0011124E80F88
:1008E000F91FE457FF4FE491EFB95196EC915197FE
:1008F000E29FF0011124E80FF91FE457FF4FE49144
:10090000EFB95296EC915297E29FF0011124E80F53
:10091000F91FE457FF4FE491EFB95396EC915397C9
:10092000E29FF0011124E80FF91FE457FF4FE49113
:10093000EFB95496EC915497E29FF0011124E80F1F
:10094000F91FE457FF4FE491EFB95596EC91559795
:10095000E29FF0011124E80FF91FE457FF4FE491E3
:10096000EFB95696EC915697E29FF0011124E80FEB
:10097000F91FE457FF4FE491EFB95796EC91579761
:10098000E29FF0011124E80FF91FE457FF4FE491B3
:10099000EFB95896EC915897E29FF0011124E80FB7
:1009A000F91FE457FF4FE491EFB95996EC9159972D
:1009B000E29FF0011124E80FF91FE457FF4FE49183
:1009C000EFB95A96EC915A97E29FF0011124E80F83
:1009D000F91FE457FF4FE491EFB95B96EC915B97F9
:1009E000E29FF0011124E80FF91FE457FF4FE49153
:1009F000EFB95C96EC915C97E29FF0011124E80F4F
:100A0000F91FE457FF4FE491EFB95D96EC915D97C4
:100A1000E29FF0011124E80FF91FE457FF4FE49122
:100A2000EFB95E96EC915E97E29FF0011124E80F1A
:100A3000F91FE457FF4FE491EFB95F96EC915F9790
:100A4000E29FF0011124E80FF91FE457FF4FE491F2
:100A5000EFB99096EC919097E29FF0011124E80F86
:100A6000F91FE457FF4FE491EFB99196EC919197FC
:100A7000E29FF0011124E80FF91FE457FF4FE491C2
:100A8000EFB99296EC919297E29FF0011124E80F52
:100A9000F91FE457FF4FE491EFB99396EC919397C8
:100AA000E29FF0011124E80FF91FE457FF4FE49192
:100AB000EFB99496EC91E29FF0011124E80FF91F31
:100AC000E457FF4FE491EFB9779BFECF32C045303A
:100AD000510540F490E9892F8A95F1F781E088BBB0
:100AE0002AE11EC0CA010597069798F0CA010B9724
:100AF000459758F485E18A95F1F781E088BB10921B
:100B00004B028FEF80934A0216C021E0413052071A
:100B100068F09AE0892F8A95F1F781E088BB25E992
:100B20002A95F1F718BA9A95F1F704C08AE18A95E7
:100B3000F1F781E088BBCA01019690934D02809342
:100B40004C028750914020F010924D0210924C02BE
:100B500080914A028F5F80934A028D3038F0109264
:100B60004A0280914B028F5F80934B02FF91EF917D
:100B7000BF91AF919F918F915F914F912F910F9066
:100B80000BBE0F900FBE0F901F9018950E94670329
:080B90007894FFCFF894FFCF29
:100B98002A2A2A2A2A2A2A2A2A2A2A2A2A2A2A2AAD
:100BA8002A2A2A2A2A2A2A2A2A2A2A2A2A2A2A2A9D
:100BB8002A2A2A2A002A202020202020202020201B
:100BC800202020202020202020202020202020201D
:100BD80020202020202020202A002A2041546D6532
:100BE8006761204E54534320566964656F205465ED
:100BF80078742047656E657261746F72202A002AC6
:100C08002056657273696F6E20302E39202020209F
:100C180020202020202020202020202020202020CC
:100C280020202A002A20466F72206D6F7265206985
:100C38006E666F20706C6561736520766973697480
:100C4800202020202020202A002A20687474703A4E
:100C58002F2F6A6D702E6E6F2F616D7674672F203F
:100C68002020202020202020202020202A00202092
:100C7800202020202020202020202020202020206C
:100C8800202020202020202020202020202020205C
:100C9800202000202020202020202020202020206C
:100CA800202020202020202020202020202020203C
:100CB8002020436F6F6C2100000125014A016F015C
:100CC80025019401B90125010001DE01DE01DE01E3
:0A0CD800DE01DE01DE01DE01030291
:00000001FF
