:100000000C9446000C9479000C9465000C946500E7
:100010000C9465000C9465000C9465000C946500CC
:100020000C9465000C9465000C9465000C946500BC
:100030000C9465000C9465000C9465000C946500AC
:100040000C9465000C9465000C9465000C9465009C
:100050000C9465000C9465000C9465000C9465008C
:100060000C9465000C9465000C9465000C9465007C
:100070000C9465000C9465000C9465000C9465006C
:100080000C9465000C9465000C94650011241FBE4F
:10009000CFEFD0E1DEBFCDBF12E0A0E0B1E0E4E3FE
:1000A000F2E000E00BBF02C007900D92A233B1074F
:1000B000D9F712E0A2E3B2E001C01D92A533B10767
:1000C000E1F70E9467000C9418010C94000017BA25
:1000D00011BA0E94DB0080E091E00E94060189B71E
:1000E000816089BF80916A00826080936A00789401
:1000F000FFCF1F920F920FB60F920BB60F921124E3
:100100002F933F934F935F936F937F938F939F931F
:10011000AF93BF93EF93FF9326B380913402E091A6
:1001200033028A3068F4217030E090E0019702C019
:10013000220F331F8A95E2F7E22BE093330223C0AC
:10014000EA3549F0E03F19F0EE23C1F00BC081E041
:100150008093320213C08AE00E94E5008DE00E9485
:10016000E5000CC080913202882331F4F0E0E05EBB
:10017000FE4F80810E94E5001092320210923302FD
:100180008FEF80933402809134028F5F809334022A
:10019000FF91EF91BF91AF919F918F917F916F915F
:1001A0005F914F913F912F910F900BBE0F900FBE1B
:1001B0000F901F9018951092900087E689B988E1FA
:1001C0008AB98EE08093950008955D9BFECF8CB92F
:1001D0000895E82FE295EF70F0E0E05EFD4FE081DA
:1001E0005D9BFECFECB9E82FF0E0EF70F070E05EC1
:1001F000FD4F80815D9BFECF8CB95D9BFECF8DE076
:100200008CB95D9BFECF8AE08CB90895FC0104C0D7
:100210005D9BFECF8CB9319680818823C9F75D9BA9
:10022000FECF8DE08CB95D9BFECF8AE08CB908953E
:04023000F894FFCF70
:100234004B6579626F6172642069732072656164D1
:10024400792C20737461727420747970696E6700FC
:100254003F3F3F3F3F3F3F3F3F3F3F3F3F3F3F3FAA
:100264003F3F3F3F3F71313F3F3F7A736177323FBA
:100274003F6378646534333F3F2076667472353F5C
:100284003F6E62686779363F3F3F6D6A7537383F26
:100294003F2C6B696F30393F3F2E2F6C3B702D3FE5
:1002A4003F3F273F5B3D3F3F3F3F3F5D3F7C3F3FFD
:1002B4003F3F3F3F3F3F3F3F3F3F3F3F3F3F3F3F4A
:1002C4003F3F3F3F3F3F3F3F3F3F3F3F3F3F3F3F3A
:1002D4003F3F3F3F3F3F3F3F3F3F3F3F3F3F3F3F2A
:1002E4003F3F3F3F3F3F3F3F3F3F3F3F3F3F3F3F1A
:1002F4003F3F3F3F3F3F3F3F3F3F3F3F3F3F3F3F0A
:100304003F3F3F3F3F3F3F3F3F3F3F3F3F3F3F3FF9
:100314003F3F3F3F3F3F3F3F3F3F3F3F3F3F3F3FE9
:100324003F3F3F3F3F3F3F3F3F3F3F3F3F3F3F3FD9
:100334003F3F3F3F3F3F3F3F3F3F3F3F3F3F3F3FC9
:100344003F3F3F3F3F3F3F3F3F3F3F3F3F3F3F3FB9
:1003540030313233343536373839414243444546F7
:02036400000097
:00000001FF
